:020000040800F2
:10000000E0050020BD0F0008810A0008830A0008EF
:1000100000000000000000000000000000000000E0
:10002000000000000000000000000000870A000837
:100030000000000000000000890A00088B0A000888
:100040008B030008000000008F030008530700081E
:100050007B100008BB100008DD100008DF1000084E
:1000600000000000E1100008E3100008E51000089F
:10007000E7100008E9100008EB100008000000007D
:10008000ED1000080000000000000000EF10000864
:10009000F1100008F3100008F5100008F710000830
:1000A000F9100008FB100008FD1000089F0A000866
:1000B0002B0B0008FEB50400002000250021019153
:1000C0000026002102910027694909680C220A4094
:1000D00000920099002906D0042907D0082908D0E9
:1000E0000C2929D02BE0744820602AE07248206057
:1000F00027E05F480168F020800308405C490968F8
:10010000C02252020A400192800C801C0500019816
:10011000002803D16948684307000BE0684800687D
:100120000007000F401C06006348310000F0D6F8BD
:1001300068430700276004E06348206001E05E48F0
:1001400020604B480168F020084000095D49095CC7
:100150002268CA406260464A1368E022D2001A4010
:10016000120A0092574A009BD25C6368D340A36096
:10017000484B1B68DB0502D45448E0600AE03C4869
:100180000068400403D4A0684008E06002E0A06872
:100190008008E0603F480068400602D44C48206177
:1001A00002E08020000220613A480068C00602D4C4
:1001B0004148606101E0206860613648006880075E
:1001C000800F002802D1A068A0611AE031480068C1
:1001D0008007800F012802D12068A06111E02D481E
:1001E00000688007800F022803D180200002A061F0
:1001F00007E0284800688007800F032801D12E48B7
:10020000A06124480068C02189020140002902D170
:10021000A068E06123E01F480068C0218902014016
:1002200080204002814202D12068E06117E0194835
:100230000068C0218902014080208002814203D1F0
:1002400080200002E0610AE012480068C0218902B3
:100250000140C0208002814201D11748E0610D4871
:100260000068000602D41848206200E02762F7BD4B
:100270000410024000B5C9B2002905D0154A126821
:100280000243144B1A6004E0124A12688243114B75
:100290001A6000BD3010024000B5C9B2002905D077
:1002A0000D4A126802430C4B1A6004E00A4A1268B5
:1002B0008243094B1A6000BD00127A0000093D001C
:1002C0002C10024000000020006CDC02809FD50052
:1002D00012800000141002401C1002400022030A89
:1002E0008B420BD203098B4219D243088B422ED288
:1002F000411A00D20146524110467047FF220902BE
:100300003FD012068B4205D3121209028B4201D351
:100310001212090203098B4219D300E0090AC3092A
:100320008B4201D3CB01C01A524183098B4201D3C6
:100330008B01C01A524143098B4201D34B01C01AB1
:10034000524103098B4201D30B01C01A5241C30829
:100350008B4201D3CB00C01A524183088B4201D398
:100360008B00C01A524143088B4201D34B00C01A84
:100370005241884200D3401A5241CFD20146104622
:10038000704708B500F002F808BDFEE77047FEE7C9
:1003900080B570480068012101436E4801606E48D5
:1003A00000686E4901406C4801606A4800686C4909
:1003B000014068480160674800686A490140654833
:1003C000016065480068684901406348016067480A
:1003D00000680F21884365490860654800686549E1
:1003E0000140634801606448006801218843624914
:1003F000086000206149086000F04DF801BDF0B5CB
:100400000020002400250026534909680C270F40CE
:100410003900002904D0042906D0082908D02AE090
:1004200057485849086029E055485649086025E072
:1004300049480168F0208003084047490968C02204
:1004400052020A401500800C801C0400002D04D1CB
:100450004D4860434B4908600CE044480068000781
:10046000000F401C060046483100FFF737FF60438D
:100470004449086002E04248424908603648006842
:10048000424900090007000F085C3E490968C14065
:100490003C4A1160F0BDC0B50020019000200090E2
:1004A0002C4800688021490201432A4801602948FC
:1004B000006880218902084000900198401C01904A
:1004C0000098002804D10198A021C9018842EED1EA
:1004D00020480068800302D50120009001E0002040
:1004E00000900098012834D11120294908601A4849
:1004F00000681949086018480068174908601648DC
:1005000000682449014014480160134800688821AC
:1005100049030143104801600E48006880214904E6
:1005200001430C4801600B4800688001FBD50A4874
:1005300000680321884308490860074800680221D1
:10054000014305480160044800680C210140082966
:10055000F9D103BD00100240041002400CB8FFF8AE
:10056000FFFFF6FEFFFFFBFFFFFFC0FF2C10024066
:1005700030100240ACFEFFFF341002400810024071
:1005800000127A001000002000093D001400002035
:1005900000200240FF7FC0FFF8B50A200090002431
:1005A000614D22000099280000F0D4F80A250026A9
:1005B0005E4F32002900380000F0CCF8F1BD00B5E4
:1005C00083B001218020C002FFF754FEE02000909C
:1005D0000120694608710020694688710320694638
:1005E000487100206946C8716946514800F0DAF840
:1005F00007BD10B50400E4B2002C04D180214C48A2
:1006000000F06AF903E08021494800F062F910BD6A
:1006100010B50400E4B2002C04D14021444800F09D
:100620005BF903E04021424800F053F910BD10B5DA
:100630000400E4B2002C04D120213D4800F04CF924
:1006400003E020213A4800F044F910BD80B5364857
:100650008088401C3449888033488088FA2189008A
:10066000884216DB0020304988802F488078002897
:1006700001D1012000E000202B4988702A488078B1
:10068000002803D00020FFF7C3FF02E00120FFF79E
:10069000BFFF01BD80B525488088401C2349888064
:1006A00022484078002821D0204880881F49C988E6
:1006B000884203D201201D49087017E01B4880883A
:1006C0001A49C988194A12898918884203DA002010
:1006D000164908700AE00020144988800020134958
:1006E000087012484078401E104948700F48007842
:1006F000002809D00D488078002805D101200B4939
:1007000088700020FFF793FF08480078002809D17F
:1007100006488078012805D100200449887001200E
:10072000FFF785FF01BD0000C0010020CC010020C3
:100730000004004880B5FFF72FFFFFF740FF0120BE
:10074000FFF775FF0120FFF763FF0020FFF751FF60
:1007500001BDFEE71206130A1A43130C1A4300BF29
:10076000094205D0830705D00270401C491EF9D10B
:1007700070470000130030B414001500103902D384
:1007800010393CC0FCD2490700D30CC000D504C0CE
:10079000890002D30280801C002900D5027030BC81
:1007A00070470000F0B50025002200230024102C23
:1007B00055D20125A5402A000D6815402B00934213
:1007C0004BD10D79012D02D00D79022D1DD18668F6
:1007D0000327BC46250002277D436746AF40BE4342
:1007E000866086684F79BC46250002277D436746B0
:1007F000AF403743876085880126A640B543858092
:1008000085888E79A6402E43868006680327BC46DD
:10081000250002277D436746AF40BE430660066859
:100820000F79BC46250002277D436746AF4037431A
:100830000760C6680327BC46250002277D4367463C
:10084000AF40BE43C660C668CF79BC4625000227CC
:100850007D436746AF403743C760641CA7E7F0BDE0
:10086000F1B481B000200023D2B20C0065076D0FF7
:10087000042465431400AC40019D89B2CE100427C6
:100880007E43AD190095019F89B2CE1004256E43B9
:10089000BD192F6A0F25AC460D006E07760F042593
:1008A0006E436546B540AF43009D2F62019D89B2FE
:1008B000CE1004277E43AD192D6A2543019EB44610
:1008C00089B2CF10042677436646F6193562F3BC29
:1008D000704789B28161704701857047F0B58BB070
:1008E00004000D000020019000270026206801214F
:1008F00088432060606837490140A8680843009039
:10090000009860602168344808406968EA680A43D2
:10091000296911430143009100982060A0682F4984
:1009200001406869084300900098A06002A8FFF7A2
:10093000C1FB2248844201D1089E05E02048844240
:1009400001D1099E00E0049E206800040BD502201E
:1009500070432968FFF7C2FC070002207043296832
:10096000FFF7BCFC08E030002968FFF7B7FC070080
:1009700030002968FFF7B2FC28684008814200D3A4
:100980007F1C2068000407D578084007400F01004D
:100990003800134F07400F433800A0810BB0F0BD63
:1009A00000B5C9B2002904D00268012313430360D3
:1009B00003E0026801239A43026000BD0038014051
:1009C00000440040CA05D20D02857047808CC005E6
:1009D000C00D7047FFCFFFFFF3E9FFFFFFFCFFFFF4
:1009E000F0FF0000F7B581B00020002100220023B5
:1009F000019C029DADB22D0AADB2029EF6B20096E8
:100A00000126009FBE40022D01D1241D02E0032DCE
:100A100000D108346846007B002803D020683043AA
:100A2000206002E02068B0432060FFBDF8B50200FE
:100A300000200023002600240D00ADB22D0AADB227
:100A40000095CFB20125BD40009F012F02D1136850
:100A50002B4007E0009B022B02D153682B4001E0A2
:100A600093682B400D0C0126AE40D5693540002B14
:100A700003D0002D01D0012000E00020C0B2F2BD63
:100A8000704700B5FEE77047704780B500F019F970
:100A9000FFF700FEFFF7DAFD00F068F901BD10B5C1
:100AA00045494648FFF7C2FF002816D0444844880D
:100AB0002000401C424948804048FFF787FF4049DA
:100AC000A4B2091908713E484088802802D100204C
:100AD0003B49488001203A4908703A493748FFF7B6
:100AE000A5FF002820D03848007800281CD03748BF
:100AF00000780100491C354A11703149C0B208180C
:100B00008621415C89B22D48FFF75CFF2F480078B1
:100B10002D490978884207D300222A492748FFF740
:100B200061FF00202849087010BD10B522492848EF
:100B3000FFF77CFF002816D0264844882000401C80
:100B4000244948802248FFF741FF2249A4B20919ED
:100B5000087120484088802802D100201D49488023
:100B600001201C49087017491948FFF75FFF00284A
:100B700020D01948007800281CD0184800780100BF
:100B8000491C164A11701349C0B208188621415CED
:100B900089B20F48FFF716FF104800780E49097810
:100BA000884207D3002207490948FFF71BFF0020AE
:100BB0000949087010BD000005010500003801401A
:100BC0002400002007010700A8000020A900002041
:100BD00000440040EC000020700100207101002062
:100BE000F0B540B200281BD43B4A40B2830804242D
:100BF0006343D258FF238407A40F08256C43A34006
:100C00009A438B01DBB28407A40F08256C43A340F1
:100C10001343314A40B2840804256C43135120E049
:100C20002E4C40B20207120F083A95080422554391
:100C30002A4A40B203071B0F083B9B080426734354
:100C4000D258FF238607B60F08277E43B3409A4346
:100C50008B01DBB28607B60F08277E43B3401343F0
:100C60006351F0BD10B50400601E80214904884224
:100C700001D301200EE0601E194908600321002005
:100C8000C043FFF7ADFF0020164908600720164952
:100C90000860002010BD80B514480068FA21890062
:100CA000FFF71CFBFFF7DEFF002800D0FEE701BDC9
:100CB00001B500980E4908600D4800680028FBD176
:100CC00001BD00B50A480068002804D00848006843
:100CD000401E0749086000BD00E400E01CED00E094
:100CE00014E000E018E000E010E000E01000002058
:100CF000D801002000B583B001218020C003FFF798
:100D0000B9FA8020009001206946087100206946E8
:100D1000887103206946487101206946C871694697
:100D20003848FFF73FFD07BD70B50A240025364E51
:100D30002A0021003000FFF70DFD70BD10B5040042
:100D4000E4B2012C04D180212E48FFF7C2FD03E05C
:100D500080212C48FFF7C0FD10BD80B5FFF7CAFF0A
:100D6000FFF7E2FF0020FFF7E9FF01BD80B526484D
:100D70008088401C244988802348C088002822D0CD
:100D8000214880882049497889B2884203D20120CD
:100D90001D49087017E01C4880881B4949781A4A89
:100DA00092788918884203DA0020174908700AE00F
:100DB0000020154988800020134908701248C08817
:100DC000401E1149C88010480078002809D00E48FC
:100DD0000089002805D101200B4908810120FFF777
:100DE000ADFF09480078002809D10748008901288B
:100DF00005D10020044908810020FFF79FFF01BDB5
:100E00000000000000140048B401002070B58AB052
:100E1000012180208002FFF72DFA0121802080022D
:100E2000FFF73AFA012202219020C005FFF718FDD2
:100E3000012203219020C005FFF712FD0C20019034
:100E4000022001A90871002001A98871012001A9CF
:100E5000C871032001A9487101A99020C005FFF7BE
:100E6000A1FCE120400203900020049000200590A6
:100E700000200690002008900C20079003A913483A
:100E8000FFF72CFD1C206946087002206946487057
:100E9000012069468870684600F01EF801210B4861
:100EA000FFF77EFD01220A490848FFF79BFDC62493
:100EB0000025084E2A0021003000FFF74BFC0AB045
:100EC00070BD80B5FFF7A2FF01BD000000440040E7
:100ED00005010500EC00002030B500218278002AD1
:100EE00026D0174A03789B1004246343D258FF236B
:100EF0000478A407A40F08256C43A3409A434378C1
:100F00009B01DBB20478A407A40F08256C43A3401F
:100F1000134319000A4A03789B1004246343D150F9
:100F200001220378DB06DB0E9A40064B1A6006E0CE
:100F300001220378DB06DB0E9A40034B1A6030BDBA
:100F400000E400E000E100E080E100E070B40100B6
:100F50000123002413E00A68091D1A4202D04D46FD
:100F60006D1E52191460121D001F0428FAD21500BC
:100F7000860701D51480AD1C184000D02C7008687D
:100F8000091D0028E7D1080070BC704730B4012269
:100F90000168001D00290FD00368C3184468083099
:100FA000144202D04D466D1E64191D6825601B1D3C
:100FB000241D091FECD0F8E730BC704705480649EE
:100FC00000220260001D8842FBD304488047044889
:100FD0000047000000000020FF1F002091030008D0
:100FE000D110000810B5074979441831064C7C44EB
:100FF000163404E0081D0A68891888470100A142D8
:10100000F8D110BD2C0000004C00000000000000D2
:10101000010203040102030406070809006CDC0254
:101020000000000000000000010203040607080998
:101030001DFFFFFFB8010000240000200000000099
:101040004DFFFFFF24000000C4FFFFFF0000002051
:101050000000000080B500F00AF8FFF71CFEFFF763
:1010600069FBFFF77AFEFFF72CFF62B601BD80B582
:10107000FFF78EF9FFF7C3F901BDFEE700F00BF8AB
:10108000002801D0FFF7AEFF002000BF00BF00F036
:1010900004F800F009F80120704780B5FFF7DAFF87
:1010A0006420FFF705FEFEE780B500F001F801BD02
:1010B0000746384600F002F8FBE7FEE780B500BFC0
:1010C00000BF024A11001820ABBEFBE72600020059
:1010D00000BF00BF00BF00BFFFF7D0FFFEE7FEE785
:1010E000FEE7FEE7FEE7FEE7FEE7FEE7FEE7FEE7D8
:0E10F000FEE7FEE7FEE7FEE7FEE7FEE7FEE7AF
:04000005080010D10E
:00000001FF
