:020000040800F2
:100000003004002029050008F9050008FB05000858
:1000100000000000000000000000000000000000E0
:10002000000000000000000000000000FD050008C6
:100030000000000000000000FF05000801060008A5
:10004000CB020008000000004F0400085304000821
:1000500027050008E30500081D0600081F06000824
:1000600000000000210600082306000825060008FD
:1000700027060008290600082B06000800000000DB
:100080002D06000800000000000000002F060008F8
:100090003106000833060008350600083706000858
:1000A000390600083B0600083D0600083F06000828
:1000B0004106000810B5534C0A21200000F0BEF89C
:1000C0000A2120000C3000F0B9F810BD80B5010005
:1000D0004D48002903D1802100F0B4F801BD8021F2
:1000E00000F0AEF801BD80B501004748002903D1FA
:1000F000402100F0A7F801BD402100F0A1F801BDAA
:1001000080B501004048002903D1202100F09AF871
:1001100001BD202100F094F801BD3A488188491CB6
:10012000818089B2FA229200914200DA704780B54C
:10013000002181808178491E8941C90F81708078B2
:10014000002801D0002000E00120FFF7CCFF01BD16
:100150002C4B588299825A73002018829873187316
:10016000704770B5274C238A5B1C2382617B01207A
:100170000025002911D0628A9EB2964201D22073D6
:100180000EE09BB2A08A1018834201DA257311E0B9
:1001900025822573481E60730CE0217B002909D05D
:1001A000A17B00290CD1A0730020FFF7A9FF207BC1
:1001B000002805D1A07B012802D1A573FFF7A0FF7D
:1001C00070BD00B583B0FFF775FF0121880400F012
:1001D0003BF8E02000906846012101710021817107
:1001E00003224271C1716946074800F039F80120C5
:1001F000FFF786FF0120FFF776FF0020FFF766FF7D
:1002000007BD00001400002000040048130030B4B3
:1002100014001500103902D310393CC0FCD2490734
:1002200000D30CC000D504C0890002D30280801C1A
:10023000002900D5027030BC704700000022E5E7BD
:100240008161704701857047044A0029116802D016
:1002500008431060704781431160704714100240DA
:10026000F0B50022012393400C681C409C4228D129
:1002700054000326A640F5430E79012E01D0022E2C
:100280000FD186682E40866086684F79A740374335
:10029000876086889E43868083888E7996401E4339
:1002A000868003682B40036003680E79A6401E43D6
:1002B0000660C3681D40C560C368CD79A5401D4375
:1002C000C560521C102ACDD3F0BDFEE782B046486F
:1002D000016801220A4302604168444A0A404260C0
:1002E0000168434A0A4002600168424A0A400260CB
:1002F0004168414A0A404260C16A0F229143C1628B
:10030000016B3E4A0A400263416B01229143416303
:100310000021816000910191016812040A4302608A
:10032000016880229202114001910099491C0091BC
:100330000199002904D10099A022D2019142EFD164
:1003400001688903CA0F01920199012924D1112161
:100350002B4A116041684160416841604168294A07
:100360000A4042604168882252030A4342600168A1
:10037000802252040A43026001688901FCD5416869
:10038000032291434160416802220A43426041686E
:100390000C220A40082AFAD102B0704770B51A4CF4
:1003A00021681A480F250C220A40082A12D1216818
:1003B00022688E0C2E40B61CC0214902114003D188
:1003C00030001349484305E0A16A2940491C00F068
:1003D00023F870430F49086120680A690009054045
:1003E000485DC2400A6170BD001002400CB8FFF8C1
:1003F000FFFFF6FEFFFFFBFFFFFFC0FFACFEFFFFAE
:1004000000200240FF7FC0FF0410024000127A006B
:1004100000093D0000000020094214D088420FD39B
:100420000122030C01D100041204002300185B41D7
:100430008B4200D35B1A5241F8D319001000704769
:1004400001000020704708B500F002F808BDFEE783
:100450007047FEE700B515480068FA218900FFF7EC
:10046000DBFF401E124988420DD8124A50601248E4
:1004700003681940C0231B060B43036000209060F3
:100480000720106000BDFEE701B40C480099016030
:1004900001680029FCD101B07047084801680029B3
:1004A00002D00168491E0160704700001000002062
:1004B000FFFFFF0010E000E020ED00E02C00002036
:1004C00030B501684118446862088A188368E407F7
:1004D0000DD54C461B190AE00C7864B2491C0D7806
:1004E000491C1D705B1C002C05D5641CF9D1914280
:1004F000F2D10C3030BD641EF1D5F8E780B5002094
:10050000FFF7F1FD0020FFF7FBFD0020FFF7DEFD08
:10051000FA208000FFF7B8FFFA2040001E220100F9
:10052000FFF716FE01BDFEE70548064900220260FE
:10053000001D8842FBD30448804704480047000060
:1005400000000020FF1F0020CD0200081106000857
:1005500010B5074979441831064C7C44163404E040
:10056000081D0A68891888470100A142F8D110BD0A
:10057000080000001400000049FFFFFFC600000053
:10058000220000000000002000F00BF8002801D03D
:10059000FFF7DEFF002000BF00BF00F004F800F00E
:1005A00008F80120704780B500F007F8FFF7A6FFB4
:1005B000FEE780B500F00AF801BD80B500F00BF849
:1005C000FFF748FFFFF7FDFD62B601BD074638465D
:1005D00000F008F8FBE780B5FFF778FEFFF7DEFED6
:1005E00001BDFEE780B500BF00BF024A1100182020
:1005F000ABBEFBE7260002007047FEE7704770477E
:1006000080B5FFF74AFFFFF7ACFDFFF786FD01BDA0
:1006100000BF00BF00BF00BFFFF7B6FFFEE7FEE769
:10062000FEE7FEE7FEE7FEE7FEE7FEE7FEE7FEE7A2
:10063000FEE7FEE7FEE7FEE7FEE7FEE7FEE7FEE792
:10064000FEE7F8000B0102030406070809006CDC52
:0306500002E400C1
:0400000508000611D8
:00000001FF
